{
  "contractName": "AirdropCampaign",
  "abi": [
    {
      "constant": false,
      "inputs": [
        {
          "name": "candidate",
          "type": "address"
        }
      ],
      "name": "setOwner",
      "outputs": [],
      "payable": false,
      "stateMutability": "nonpayable",
      "type": "function"
    },
    {
      "constant": false,
      "inputs": [],
      "name": "register",
      "outputs": [
        {
          "name": "",
          "type": "bool"
        }
      ],
      "payable": false,
      "stateMutability": "nonpayable",
      "type": "function"
    },
    {
      "constant": false,
      "inputs": [
        {
          "name": "amount",
          "type": "uint256"
        }
      ],
      "name": "setDisbursementAmount",
      "outputs": [
        {
          "name": "",
          "type": "bool"
        }
      ],
      "payable": false,
      "stateMutability": "nonpayable",
      "type": "function"
    },
    {
      "constant": false,
      "inputs": [
        {
          "name": "candidate",
          "type": "address"
        }
      ],
      "name": "setTokenAddress",
      "outputs": [
        {
          "name": "",
          "type": "bool"
        }
      ],
      "payable": false,
      "stateMutability": "nonpayable",
      "type": "function"
    },
    {
      "constant": true,
      "inputs": [],
      "name": "owner",
      "outputs": [
        {
          "name": "",
          "type": "address"
        }
      ],
      "payable": false,
      "stateMutability": "view",
      "type": "function"
    },
    {
      "constant": true,
      "inputs": [],
      "name": "tokenAddress",
      "outputs": [
        {
          "name": "",
          "type": "address"
        }
      ],
      "payable": false,
      "stateMutability": "view",
      "type": "function"
    },
    {
      "constant": true,
      "inputs": [],
      "name": "disbursementAmount",
      "outputs": [
        {
          "name": "",
          "type": "uint256"
        }
      ],
      "payable": false,
      "stateMutability": "view",
      "type": "function"
    },
    {
      "inputs": [
        {
          "name": "tokenContract",
          "type": "address"
        },
        {
          "name": "amount",
          "type": "uint256"
        }
      ],
      "payable": false,
      "stateMutability": "nonpayable",
      "type": "constructor"
    }
  ],
  "bytecode": "0x6060604052341561000f57600080fd5b60405160408061093983398101604052808051906020019091908051906020019091905050336000806101000a81548173ffffffffffffffffffffffffffffffffffffffff021916908373ffffffffffffffffffffffffffffffffffffffff160217905550600073ffffffffffffffffffffffffffffffffffffffff168273ffffffffffffffffffffffffffffffffffffffff161415156100ec5781600160006101000a81548173ffffffffffffffffffffffffffffffffffffffff021916908373ffffffffffffffffffffffffffffffffffffffff1602179055505b806002819055505050610835806101046000396000f300606060405260043610610083576000357c0100000000000000000000000000000000000000000000000000000000900463ffffffff16806313af4035146100885780631aa3a008146100c15780631af50c5e146100ee57806326a4e8d2146101295780638da5cb5b1461017a5780639d76ea58146101cf578063f28b7a9c14610224575b600080fd5b341561009357600080fd5b6100bf600480803573ffffffffffffffffffffffffffffffffffffffff1690602001909190505061024d565b005b34156100cc57600080fd5b6100d46102f1565b604051808215151515815260200191505060405180910390f35b34156100f957600080fd5b61010f60048080359060200190919050506104b3565b604051808215151515815260200191505060405180910390f35b341561013457600080fd5b610160600480803573ffffffffffffffffffffffffffffffffffffffff169060200190919050506104f9565b604051808215151515815260200191505060405180910390f35b341561018557600080fd5b61018d6107b8565b604051808273ffffffffffffffffffffffffffffffffffffffff1673ffffffffffffffffffffffffffffffffffffffff16815260200191505060405180910390f35b34156101da57600080fd5b6101e26107dd565b604051808273ffffffffffffffffffffffffffffffffffffffff1673ffffffffffffffffffffffffffffffffffffffff16815260200191505060405180910390f35b341561022f57600080fd5b610237610803565b6040518082815260200191505060405180910390f35b3373ffffffffffffffffffffffffffffffffffffffff166000809054906101000a90505050600073ffffffffffffffffffffffffffffffffffffffff168173ffffffffffffffffffffffffffffffffffffffff16141515156102ae57600080fd5b806000806101000a81548173ffffffffffffffffffffffffffffffffffffffff021916908373ffffffffffffffffffffffffffffffffffffffff16021790555050565b600080600160009054906101000a900473ffffffffffffffffffffffffffffffffffffffff1690506002548173ffffffffffffffffffffffffffffffffffffffff166370a08231306000604051602001526040518263ffffffff167c0100000000000000000000000000000000000000000000000000000000028152600401808273ffffffffffffffffffffffffffffffffffffffff1673ffffffffffffffffffffffffffffffffffffffff168152602001915050602060405180830381600087803b15156103bf57600080fd5b6102c65a03f115156103d057600080fd5b505050604051805190501115156103e657600080fd5b8073ffffffffffffffffffffffffffffffffffffffff1663a9059cbb336002546000604051602001526040518363ffffffff167c0100000000000000000000000000000000000000000000000000000000028152600401808373ffffffffffffffffffffffffffffffffffffffff1673ffffffffffffffffffffffffffffffffffffffff16815260200182815260200192505050602060405180830381600087803b151561049357600080fd5b6102c65a03f115156104a457600080fd5b50505060405180519050505090565b60003373ffffffffffffffffffffffffffffffffffffffff166000809054906101000a905050506000821115156104e957600080fd5b8160028190555060019050919050565b6000803373ffffffffffffffffffffffffffffffffffffffff166000809054906101000a905050508290508073ffffffffffffffffffffffffffffffffffffffff166301ffc9a760405180807f616c6c6f77616e636528616464726573732c6164647265737329000000000000815250601a019050604051809103902060405180807f617070726f766528616464726573732c75696e743235362900000000000000008152506018019050604051809103902060405180807f7472616e7366657246726f6d28616464726573732c616464726573732c75696e81526020017f74323536290000000000000000000000000000000000000000000000000000008152506025019050604051809103902060405180807f7472616e7366657228616464726573732c75696e7432353629000000000000008152506019019050604051809103902060405180807f62616c616e63654f6628616464726573732900000000000000000000000000008152506012019050604051809103902060405180807f746f74616c537570706c79282900000000000000000000000000000000000000815250600d019050604051809103902018181818186000604051602001526040518263ffffffff167c010000000000000000000000000000000000000000000000000000000002815260040180827bffffffffffffffffffffffffffffffffffffffffffffffffffffffff19167bffffffffffffffffffffffffffffffffffffffffffffffffffffffff19168152602001915050602060405180830381600087803b151561074757600080fd5b6102c65a03f1151561075857600080fd5b50505060405180519050151561076d57600080fd5b80600160006101000a81548173ffffffffffffffffffffffffffffffffffffffff021916908373ffffffffffffffffffffffffffffffffffffffff1602179055506001915050919050565b6000809054906101000a900473ffffffffffffffffffffffffffffffffffffffff1681565b600160009054906101000a900473ffffffffffffffffffffffffffffffffffffffff1681565b600254815600a165627a7a72305820b9f051f7c9f224acf049c0787673cab0945c36e8b83c23f437068737e4a4691f0029",
  "source": "pragma solidity ^0.4.17;\n\nimport './ERC20.sol';\nimport './ERC165.sol';\nimport './Ownable.sol';\nimport './InterfaceSignatureConstants.sol';\n\ncontract AirdropCampaign is Ownable, InterfaceSignatureConstants {\n  address public tokenAddress;\n  uint256 public disbursementAmount;\n\n  mapping (address => uint256) disbursements;\n\n  function AirdropCampaign (address tokenContract, uint256 amount) Ownable() public {\n    if (tokenContract != address(0)) {\n      tokenAddress = tokenContract;\n    }\n\n    disbursementAmount = amount;\n  }\n\n  function register () public returns (bool) {\n    ERC20 tokenContract = ERC20(tokenAddress);\n\n    require(tokenContract.balanceOf(this) > disbursementAmount);\n\n    tokenContract.transfer(msg.sender, disbursementAmount);\n  }\n\n  function setTokenAddress (address candidate) public restricted returns (bool) {\n    ERC165 candidateContract = ERC165(candidate);\n\n    // roundabout way of verifying this\n    // 1. this address must have the code for 'supportsInterface' (ERC165), and,\n    // 2. this address must return true given the hash of the interface for ERC20\n    require(candidateContract.supportsInterface(InterfaceSignature_ERC20));\n    tokenAddress = candidateContract;\n    return true;\n  }\n\n  function setDisbursementAmount (uint256 amount) public restricted returns (bool) {\n    require(amount > 0);\n    disbursementAmount = amount;\n    return true;\n  }\n}\n",
  "sourcePath": "/Users/mishochu/Source/occ/occ-contracts/contracts/AirdropCampaign.sol",
  "compiler": {
    "name": "solc",
    "version": "0.4.18+commit.9cf6e910.Emscripten.clang"
  },
  "schemaVersion": "1.0.1",
  "updatedAt": "2018-01-19T17:32:50.816Z"
}