{
  "contractName": "AirdropCampaign",
  "abi": [
    {
      "constant": false,
      "inputs": [
        {
          "name": "candidate",
          "type": "address"
        }
      ],
      "name": "setOwner",
      "outputs": [
        {
          "name": "",
          "type": "bool"
        }
      ],
      "payable": false,
      "stateMutability": "nonpayable",
      "type": "function"
    },
    {
      "constant": false,
      "inputs": [],
      "name": "register",
      "outputs": [
        {
          "name": "",
          "type": "bool"
        }
      ],
      "payable": false,
      "stateMutability": "nonpayable",
      "type": "function"
    },
    {
      "constant": false,
      "inputs": [
        {
          "name": "amount",
          "type": "uint256"
        }
      ],
      "name": "setDisbursementAmount",
      "outputs": [],
      "payable": false,
      "stateMutability": "nonpayable",
      "type": "function"
    },
    {
      "constant": false,
      "inputs": [
        {
          "name": "candidate",
          "type": "address"
        }
      ],
      "name": "setTokenAddress",
      "outputs": [],
      "payable": false,
      "stateMutability": "nonpayable",
      "type": "function"
    },
    {
      "constant": true,
      "inputs": [],
      "name": "tokenHolderAddress",
      "outputs": [
        {
          "name": "",
          "type": "address"
        }
      ],
      "payable": false,
      "stateMutability": "view",
      "type": "function"
    },
    {
      "constant": true,
      "inputs": [
        {
          "name": "",
          "type": "address"
        }
      ],
      "name": "disbursements",
      "outputs": [
        {
          "name": "",
          "type": "uint256"
        }
      ],
      "payable": false,
      "stateMutability": "view",
      "type": "function"
    },
    {
      "constant": true,
      "inputs": [],
      "name": "owner",
      "outputs": [
        {
          "name": "",
          "type": "address"
        }
      ],
      "payable": false,
      "stateMutability": "view",
      "type": "function"
    },
    {
      "constant": true,
      "inputs": [],
      "name": "canDisburseMultipleTimes",
      "outputs": [
        {
          "name": "",
          "type": "bool"
        }
      ],
      "payable": false,
      "stateMutability": "view",
      "type": "function"
    },
    {
      "constant": false,
      "inputs": [
        {
          "name": "value",
          "type": "bool"
        }
      ],
      "name": "setCanDisburseMultipleTimes",
      "outputs": [],
      "payable": false,
      "stateMutability": "nonpayable",
      "type": "function"
    },
    {
      "constant": true,
      "inputs": [],
      "name": "tokenAddress",
      "outputs": [
        {
          "name": "",
          "type": "address"
        }
      ],
      "payable": false,
      "stateMutability": "view",
      "type": "function"
    },
    {
      "constant": false,
      "inputs": [
        {
          "name": "holder",
          "type": "address"
        }
      ],
      "name": "setTokenHolderAddress",
      "outputs": [],
      "payable": false,
      "stateMutability": "nonpayable",
      "type": "function"
    },
    {
      "constant": true,
      "inputs": [],
      "name": "disbursementAmount",
      "outputs": [
        {
          "name": "",
          "type": "uint256"
        }
      ],
      "payable": false,
      "stateMutability": "view",
      "type": "function"
    },
    {
      "inputs": [
        {
          "name": "tokenContract",
          "type": "address"
        },
        {
          "name": "tokenHolder",
          "type": "address"
        },
        {
          "name": "amount",
          "type": "uint256"
        }
      ],
      "payable": false,
      "stateMutability": "nonpayable",
      "type": "constructor"
    },
    {
      "anonymous": false,
      "inputs": [
        {
          "indexed": true,
          "name": "owner",
          "type": "address"
        }
      ],
      "name": "NewOwner",
      "type": "event"
    }
  ],
  "bytecode": "0x606060405234156200001057600080fd5b6040516060806200157b83398101604052808051906020019091908051906020019091908051906020019091905050336000806101000a81548173ffffffffffffffffffffffffffffffffffffffff021916908373ffffffffffffffffffffffffffffffffffffffff160217905550600073ffffffffffffffffffffffffffffffffffffffff168373ffffffffffffffffffffffffffffffffffffffff16141515620000d657620000d583620001556401000000000262000752176401000000009004565b5b600073ffffffffffffffffffffffffffffffffffffffff168273ffffffffffffffffffffffffffffffffffffffff161415156200012d576200012c82620004476401000000000262000b54176401000000009004565b5b6200014c81620006df64010000000002620006df176401000000009004565b50505062000754565b60003373ffffffffffffffffffffffffffffffffffffffff166000809054906101000a900473ffffffffffffffffffffffffffffffffffffffff1673ffffffffffffffffffffffffffffffffffffffff16141515620001b357600080fd5b8190508073ffffffffffffffffffffffffffffffffffffffff166301ffc9a760405180807f616c6c6f77616e636528616464726573732c6164647265737329000000000000815250601a019050604051809103902060405180807f617070726f766528616464726573732c75696e743235362900000000000000008152506018019050604051809103902060405180807f7472616e7366657246726f6d28616464726573732c616464726573732c75696e81526020017f74323536290000000000000000000000000000000000000000000000000000008152506025019050604051809103902060405180807f7472616e7366657228616464726573732c75696e7432353629000000000000008152506019019050604051809103902060405180807f62616c616e63654f6628616464726573732900000000000000000000000000008152506012019050604051809103902060405180807f746f74616c537570706c79282900000000000000000000000000000000000000815250600d019050604051809103902018181818186000604051602001526040518263ffffffff167c010000000000000000000000000000000000000000000000000000000002815260040180827bffffffffffffffffffffffffffffffffffffffffffffffffffffffff19167bffffffffffffffffffffffffffffffffffffffffffffffffffffffff19168152602001915050602060405180830381600087803b1515620003da57600080fd5b6102c65a03f11515620003ec57600080fd5b5050506040518051905015156200040257600080fd5b80600160006101000a81548173ffffffffffffffffffffffffffffffffffffffff021916908373ffffffffffffffffffffffffffffffffffffffff1602179055505050565b60003373ffffffffffffffffffffffffffffffffffffffff166000809054906101000a900473ffffffffffffffffffffffffffffffffffffffff1673ffffffffffffffffffffffffffffffffffffffff16141515620004a557600080fd5b600160009054906101000a900473ffffffffffffffffffffffffffffffffffffffff16905060008173ffffffffffffffffffffffffffffffffffffffff166370a08231846000604051602001526040518263ffffffff167c0100000000000000000000000000000000000000000000000000000000028152600401808273ffffffffffffffffffffffffffffffffffffffff1673ffffffffffffffffffffffffffffffffffffffff168152602001915050602060405180830381600087803b15156200057057600080fd5b6102c65a03f115156200058257600080fd5b5050506040518051905014156200059857600080fd5b60008173ffffffffffffffffffffffffffffffffffffffff1663dd62ed3e84306000604051602001526040518363ffffffff167c0100000000000000000000000000000000000000000000000000000000028152600401808373ffffffffffffffffffffffffffffffffffffffff1673ffffffffffffffffffffffffffffffffffffffff1681526020018273ffffffffffffffffffffffffffffffffffffffff1673ffffffffffffffffffffffffffffffffffffffff16815260200192505050602060405180830381600087803b15156200067257600080fd5b6102c65a03f115156200068457600080fd5b5050506040518051905014156200069a57600080fd5b81600260006101000a81548173ffffffffffffffffffffffffffffffffffffffff021916908373ffffffffffffffffffffffffffffffffffffffff1602179055505050565b3373ffffffffffffffffffffffffffffffffffffffff166000809054906101000a900473ffffffffffffffffffffffffffffffffffffffff1673ffffffffffffffffffffffffffffffffffffffff161415156200073b57600080fd5b60008114156200074a57600080fd5b8060038190555050565b610e1780620007646000396000f3006060604052600436106100ba576000357c0100000000000000000000000000000000000000000000000000000000900463ffffffff16806313af4035146100bf5780631aa3a008146101105780631af50c5e1461013d57806326a4e8d21461016057806335359a3f146101995780636b298df0146101ee5780638da5cb5b1461023b57806395b6a08d146102905780639b12a4a1146102bd5780639d76ea58146102e2578063a23bc6fe14610337578063f28b7a9c14610370575b600080fd5b34156100ca57600080fd5b6100f6600480803573ffffffffffffffffffffffffffffffffffffffff16906020019091905050610399565b604051808215151515815260200191505060405180910390f35b341561011b57600080fd5b6101236104df565b604051808215151515815260200191505060405180910390f35b341561014857600080fd5b61015e60048080359060200190919050506106df565b005b341561016b57600080fd5b610197600480803573ffffffffffffffffffffffffffffffffffffffff16906020019091905050610752565b005b34156101a457600080fd5b6101ac610a40565b604051808273ffffffffffffffffffffffffffffffffffffffff1673ffffffffffffffffffffffffffffffffffffffff16815260200191505060405180910390f35b34156101f957600080fd5b610225600480803573ffffffffffffffffffffffffffffffffffffffff16906020019091905050610a66565b6040518082815260200191505060405180910390f35b341561024657600080fd5b61024e610a7e565b604051808273ffffffffffffffffffffffffffffffffffffffff1673ffffffffffffffffffffffffffffffffffffffff16815260200191505060405180910390f35b341561029b57600080fd5b6102a3610aa3565b604051808215151515815260200191505060405180910390f35b34156102c857600080fd5b6102e060048080351515906020019091905050610ab6565b005b34156102ed57600080fd5b6102f5610b2e565b604051808273ffffffffffffffffffffffffffffffffffffffff1673ffffffffffffffffffffffffffffffffffffffff16815260200191505060405180910390f35b341561034257600080fd5b61036e600480803573ffffffffffffffffffffffffffffffffffffffff16906020019091905050610b54565b005b341561037b57600080fd5b610383610de5565b6040518082815260200191505060405180910390f35b60003373ffffffffffffffffffffffffffffffffffffffff166000809054906101000a900473ffffffffffffffffffffffffffffffffffffffff1673ffffffffffffffffffffffffffffffffffffffff161415156103f657600080fd5b600073ffffffffffffffffffffffffffffffffffffffff168273ffffffffffffffffffffffffffffffffffffffff161415151561043257600080fd5b816000806101000a81548173ffffffffffffffffffffffffffffffffffffffff021916908373ffffffffffffffffffffffffffffffffffffffff1602179055506000809054906101000a900473ffffffffffffffffffffffffffffffffffffffff1673ffffffffffffffffffffffffffffffffffffffff167f3edd90e7770f06fafde38004653b33870066c33bfc923ff6102acd601f85dfbc60405160405180910390a260019050919050565b600080600460009054906101000a900460ff168061053c57506000600560003373ffffffffffffffffffffffffffffffffffffffff1673ffffffffffffffffffffffffffffffffffffffff16815260200190815260200160002054145b151561054757600080fd5b600160009054906101000a900473ffffffffffffffffffffffffffffffffffffffff169050600354600560003373ffffffffffffffffffffffffffffffffffffffff1673ffffffffffffffffffffffffffffffffffffffff168152602001908152602001600020600082825401925050819055508073ffffffffffffffffffffffffffffffffffffffff166323b872dd600260009054906101000a900473ffffffffffffffffffffffffffffffffffffffff16336003546000604051602001526040518463ffffffff167c0100000000000000000000000000000000000000000000000000000000028152600401808473ffffffffffffffffffffffffffffffffffffffff1673ffffffffffffffffffffffffffffffffffffffff1681526020018373ffffffffffffffffffffffffffffffffffffffff1673ffffffffffffffffffffffffffffffffffffffff1681526020018281526020019350505050602060405180830381600087803b15156106be57600080fd5b6102c65a03f115156106cf57600080fd5b5050506040518051905091505090565b3373ffffffffffffffffffffffffffffffffffffffff166000809054906101000a900473ffffffffffffffffffffffffffffffffffffffff1673ffffffffffffffffffffffffffffffffffffffff1614151561073a57600080fd5b600081141561074857600080fd5b8060038190555050565b60003373ffffffffffffffffffffffffffffffffffffffff166000809054906101000a900473ffffffffffffffffffffffffffffffffffffffff1673ffffffffffffffffffffffffffffffffffffffff161415156107af57600080fd5b8190508073ffffffffffffffffffffffffffffffffffffffff166301ffc9a760405180807f616c6c6f77616e636528616464726573732c6164647265737329000000000000815250601a019050604051809103902060405180807f617070726f766528616464726573732c75696e743235362900000000000000008152506018019050604051809103902060405180807f7472616e7366657246726f6d28616464726573732c616464726573732c75696e81526020017f74323536290000000000000000000000000000000000000000000000000000008152506025019050604051809103902060405180807f7472616e7366657228616464726573732c75696e7432353629000000000000008152506019019050604051809103902060405180807f62616c616e63654f6628616464726573732900000000000000000000000000008152506012019050604051809103902060405180807f746f74616c537570706c79282900000000000000000000000000000000000000815250600d019050604051809103902018181818186000604051602001526040518263ffffffff167c010000000000000000000000000000000000000000000000000000000002815260040180827bffffffffffffffffffffffffffffffffffffffffffffffffffffffff19167bffffffffffffffffffffffffffffffffffffffffffffffffffffffff19168152602001915050602060405180830381600087803b15156109d557600080fd5b6102c65a03f115156109e657600080fd5b5050506040518051905015156109fb57600080fd5b80600160006101000a81548173ffffffffffffffffffffffffffffffffffffffff021916908373ffffffffffffffffffffffffffffffffffffffff1602179055505050565b600260009054906101000a900473ffffffffffffffffffffffffffffffffffffffff1681565b60056020528060005260406000206000915090505481565b6000809054906101000a900473ffffffffffffffffffffffffffffffffffffffff1681565b600460009054906101000a900460ff1681565b3373ffffffffffffffffffffffffffffffffffffffff166000809054906101000a900473ffffffffffffffffffffffffffffffffffffffff1673ffffffffffffffffffffffffffffffffffffffff16141515610b1157600080fd5b80600460006101000a81548160ff02191690831515021790555050565b600160009054906101000a900473ffffffffffffffffffffffffffffffffffffffff1681565b60003373ffffffffffffffffffffffffffffffffffffffff166000809054906101000a900473ffffffffffffffffffffffffffffffffffffffff1673ffffffffffffffffffffffffffffffffffffffff16141515610bb157600080fd5b600160009054906101000a900473ffffffffffffffffffffffffffffffffffffffff16905060008173ffffffffffffffffffffffffffffffffffffffff166370a08231846000604051602001526040518263ffffffff167c0100000000000000000000000000000000000000000000000000000000028152600401808273ffffffffffffffffffffffffffffffffffffffff1673ffffffffffffffffffffffffffffffffffffffff168152602001915050602060405180830381600087803b1515610c7b57600080fd5b6102c65a03f11515610c8c57600080fd5b505050604051805190501415610ca157600080fd5b60008173ffffffffffffffffffffffffffffffffffffffff1663dd62ed3e84306000604051602001526040518363ffffffff167c0100000000000000000000000000000000000000000000000000000000028152600401808373ffffffffffffffffffffffffffffffffffffffff1673ffffffffffffffffffffffffffffffffffffffff1681526020018273ffffffffffffffffffffffffffffffffffffffff1673ffffffffffffffffffffffffffffffffffffffff16815260200192505050602060405180830381600087803b1515610d7a57600080fd5b6102c65a03f11515610d8b57600080fd5b505050604051805190501415610da057600080fd5b81600260006101000a81548173ffffffffffffffffffffffffffffffffffffffff021916908373ffffffffffffffffffffffffffffffffffffffff1602179055505050565b600354815600a165627a7a72305820519ee1d77be6bb1cb565dc7f7ebdd65d5dc3ba834bfb62cfa7ec7253fdd967690029",
  "source": "pragma solidity ^0.4.17;\n\nimport './ERC20.sol';\nimport './ERC165.sol';\nimport './Ownable.sol';\nimport './InterfaceSignatureConstants.sol';\n\ncontract AirdropCampaign is Ownable, InterfaceSignatureConstants {\n  address public tokenAddress;\n  address public tokenHolderAddress;\n  uint256 public disbursementAmount;\n  bool    public canDisburseMultipleTimes;\n\n  mapping (address => uint256) public disbursements;\n\n  function AirdropCampaign (address tokenContract, address tokenHolder, uint256 amount) Ownable() public {\n    // allow for not supplying the constructor with a working token\n    // and updating it later, however, if an address is supplied make\n    // sure it conforms to our token requirements\n    if (tokenContract != address(0)) {\n      setTokenAddress(tokenContract);\n    }\n\n    if (tokenHolder != address(0)) {\n      setTokenHolderAddress(tokenHolder);\n    }\n\n    setDisbursementAmount(amount);\n  }\n\n  function register () public returns (bool) {\n    if (!(canDisburseMultipleTimes ||\n        disbursements[msg.sender] == uint256(0))) revert();\n\n    ERC20 tokenContract = ERC20(tokenAddress);\n\n    disbursements[msg.sender] += disbursementAmount;\n    return tokenContract.transferFrom(tokenHolderAddress, msg.sender, disbursementAmount);\n  }\n\n  function setTokenAddress (address candidate) public restricted {\n    ERC165 candidateContract = ERC165(candidate);\n\n    // roundabout way of verifying this\n    // 1. this address must have the code for 'supportsInterface' (ERC165), and,\n    // 2. this address must return true given the hash of the interface for ERC20\n    if (!candidateContract.supportsInterface(InterfaceSignature_ERC20)) revert();\n    tokenAddress = candidateContract;\n  }\n\n  function setDisbursementAmount (uint256 amount) public restricted {\n    if (amount == 0) revert();\n    disbursementAmount = amount;\n  }\n\n  function setCanDisburseMultipleTimes (bool value) public restricted {\n    canDisburseMultipleTimes = value;\n  }\n\n  function setTokenHolderAddress(address holder) public restricted {\n    ERC20 tokenContract = ERC20(tokenAddress);\n    if (tokenContract.balanceOf(holder) == 0) revert();\n    if (tokenContract.allowance(holder, address(this)) == 0) revert();\n    tokenHolderAddress = holder;\n  }\n}\n",
  "sourcePath": "/Users/mishochu/Source/occ/occ-contracts/contracts/AirdropCampaign.sol",
  "compiler": {
    "name": "solc",
    "version": "0.4.18+commit.9cf6e910.Emscripten.clang"
  },
  "schemaVersion": "1.0.1",
  "updatedAt": "2018-02-01T14:16:59.970Z"
}