{
  "contractName": "OriginalToken",
  "abi": [
    {
      "constant": true,
      "inputs": [
        {
          "name": "interfaceID",
          "type": "bytes4"
        }
      ],
      "name": "supportsInterface",
      "outputs": [
        {
          "name": "",
          "type": "bool"
        }
      ],
      "payable": false,
      "stateMutability": "view",
      "type": "function"
    },
    {
      "constant": true,
      "inputs": [],
      "name": "name",
      "outputs": [
        {
          "name": "",
          "type": "string"
        }
      ],
      "payable": false,
      "stateMutability": "view",
      "type": "function"
    },
    {
      "constant": false,
      "inputs": [
        {
          "name": "spender",
          "type": "address"
        },
        {
          "name": "value",
          "type": "uint256"
        }
      ],
      "name": "approve",
      "outputs": [
        {
          "name": "success",
          "type": "bool"
        }
      ],
      "payable": false,
      "stateMutability": "nonpayable",
      "type": "function"
    },
    {
      "constant": true,
      "inputs": [],
      "name": "totalSupply",
      "outputs": [
        {
          "name": "",
          "type": "uint256"
        }
      ],
      "payable": false,
      "stateMutability": "view",
      "type": "function"
    },
    {
      "constant": false,
      "inputs": [
        {
          "name": "from",
          "type": "address"
        },
        {
          "name": "to",
          "type": "address"
        },
        {
          "name": "value",
          "type": "uint256"
        }
      ],
      "name": "transferFrom",
      "outputs": [
        {
          "name": "success",
          "type": "bool"
        }
      ],
      "payable": false,
      "stateMutability": "nonpayable",
      "type": "function"
    },
    {
      "constant": true,
      "inputs": [
        {
          "name": "",
          "type": "address"
        }
      ],
      "name": "balances",
      "outputs": [
        {
          "name": "",
          "type": "uint256"
        }
      ],
      "payable": false,
      "stateMutability": "view",
      "type": "function"
    },
    {
      "constant": true,
      "inputs": [
        {
          "name": "",
          "type": "uint256"
        }
      ],
      "name": "cofounders",
      "outputs": [
        {
          "name": "",
          "type": "address"
        }
      ],
      "payable": false,
      "stateMutability": "view",
      "type": "function"
    },
    {
      "constant": true,
      "inputs": [
        {
          "name": "",
          "type": "address"
        }
      ],
      "name": "cofounderIds",
      "outputs": [
        {
          "name": "",
          "type": "uint256"
        }
      ],
      "payable": false,
      "stateMutability": "view",
      "type": "function"
    },
    {
      "constant": true,
      "inputs": [],
      "name": "decimals",
      "outputs": [
        {
          "name": "",
          "type": "uint8"
        }
      ],
      "payable": false,
      "stateMutability": "view",
      "type": "function"
    },
    {
      "constant": true,
      "inputs": [],
      "name": "getCofounderCount",
      "outputs": [
        {
          "name": "",
          "type": "uint256"
        }
      ],
      "payable": false,
      "stateMutability": "view",
      "type": "function"
    },
    {
      "constant": true,
      "inputs": [],
      "name": "airdropCampaign",
      "outputs": [
        {
          "name": "",
          "type": "address"
        }
      ],
      "payable": false,
      "stateMutability": "view",
      "type": "function"
    },
    {
      "constant": true,
      "inputs": [],
      "name": "founder",
      "outputs": [
        {
          "name": "",
          "type": "address"
        }
      ],
      "payable": false,
      "stateMutability": "view",
      "type": "function"
    },
    {
      "constant": true,
      "inputs": [
        {
          "name": "",
          "type": "address"
        },
        {
          "name": "",
          "type": "address"
        }
      ],
      "name": "allowances",
      "outputs": [
        {
          "name": "amount",
          "type": "uint256"
        },
        {
          "name": "hasBeenPartiallyWithdrawn",
          "type": "bool"
        }
      ],
      "payable": false,
      "stateMutability": "view",
      "type": "function"
    },
    {
      "constant": true,
      "inputs": [
        {
          "name": "owner",
          "type": "address"
        }
      ],
      "name": "balanceOf",
      "outputs": [
        {
          "name": "balance",
          "type": "uint256"
        }
      ],
      "payable": false,
      "stateMutability": "view",
      "type": "function"
    },
    {
      "constant": true,
      "inputs": [],
      "name": "getCofounders",
      "outputs": [
        {
          "name": "",
          "type": "address[]"
        }
      ],
      "payable": false,
      "stateMutability": "view",
      "type": "function"
    },
    {
      "constant": true,
      "inputs": [],
      "name": "symbol",
      "outputs": [
        {
          "name": "",
          "type": "string"
        }
      ],
      "payable": false,
      "stateMutability": "view",
      "type": "function"
    },
    {
      "constant": false,
      "inputs": [
        {
          "name": "from",
          "type": "address"
        },
        {
          "name": "to",
          "type": "address"
        },
        {
          "name": "value",
          "type": "uint256"
        }
      ],
      "name": "transferBalance",
      "outputs": [
        {
          "name": "",
          "type": "bool"
        }
      ],
      "payable": false,
      "stateMutability": "nonpayable",
      "type": "function"
    },
    {
      "constant": false,
      "inputs": [
        {
          "name": "to",
          "type": "address"
        },
        {
          "name": "value",
          "type": "uint256"
        }
      ],
      "name": "transfer",
      "outputs": [
        {
          "name": "",
          "type": "bool"
        }
      ],
      "payable": false,
      "stateMutability": "nonpayable",
      "type": "function"
    },
    {
      "constant": false,
      "inputs": [
        {
          "name": "spender",
          "type": "address"
        },
        {
          "name": "value",
          "type": "uint256"
        },
        {
          "name": "extraData",
          "type": "bytes"
        }
      ],
      "name": "approveAndCall",
      "outputs": [
        {
          "name": "success",
          "type": "bool"
        }
      ],
      "payable": false,
      "stateMutability": "nonpayable",
      "type": "function"
    },
    {
      "constant": true,
      "inputs": [
        {
          "name": "owner",
          "type": "address"
        },
        {
          "name": "spender",
          "type": "address"
        }
      ],
      "name": "allowance",
      "outputs": [
        {
          "name": "remaining",
          "type": "uint256"
        }
      ],
      "payable": false,
      "stateMutability": "view",
      "type": "function"
    },
    {
      "inputs": [
        {
          "name": "tokenCofounders",
          "type": "address[15]"
        },
        {
          "name": "tokenAirdropCampaign",
          "type": "address"
        },
        {
          "name": "tokenTotalSupply",
          "type": "uint256"
        },
        {
          "name": "tokenName",
          "type": "string"
        },
        {
          "name": "tokenSymbol",
          "type": "string"
        },
        {
          "name": "tokenDecimals",
          "type": "uint8"
        },
        {
          "name": "cofounderDistribution",
          "type": "uint256"
        }
      ],
      "payable": false,
      "stateMutability": "nonpayable",
      "type": "constructor"
    },
    {
      "anonymous": false,
      "inputs": [
        {
          "indexed": true,
          "name": "owner",
          "type": "address"
        },
        {
          "indexed": true,
          "name": "spender",
          "type": "address"
        },
        {
          "indexed": false,
          "name": "currentValue",
          "type": "uint256"
        },
        {
          "indexed": false,
          "name": "value",
          "type": "uint256"
        }
      ],
      "name": "ApprovalDenied",
      "type": "event"
    },
    {
      "anonymous": false,
      "inputs": [
        {
          "indexed": true,
          "name": "from",
          "type": "address"
        },
        {
          "indexed": true,
          "name": "to",
          "type": "address"
        },
        {
          "indexed": false,
          "name": "value",
          "type": "uint256"
        }
      ],
      "name": "Transfer",
      "type": "event"
    },
    {
      "anonymous": false,
      "inputs": [
        {
          "indexed": true,
          "name": "owner",
          "type": "address"
        },
        {
          "indexed": true,
          "name": "spender",
          "type": "address"
        },
        {
          "indexed": false,
          "name": "value",
          "type": "uint256"
        }
      ],
      "name": "Approval",
      "type": "event"
    }
  ],
  "bytecode": "0x606060405234156200001057600080fd5b604051620024e6380380620024e6833981016040528090816101e0018051906020019091908051906020019091908051820191906020018051820191906020018051906020019091908051906020019091905050866000806000806002805480600101828162000081919062000695565b9160005260206000209001600033600160006101000a81548173ffffffffffffffffffffffffffffffffffffffff021916908373ffffffffffffffffffffffffffffffffffffffff1602179055909190916101000a81548173ffffffffffffffffffffffffffffffffffffffff021916908373ffffffffffffffffffffffffffffffffffffffff16021790555050600093505b600f8460ff161015620002d557848460ff16600f811015156200013357fe5b60200201519250600073ffffffffffffffffffffffffffffffffffffffff168373ffffffffffffffffffffffffffffffffffffffff1614158015620001c65750600160009054906101000a900473ffffffffffffffffffffffffffffffffffffffff1673ffffffffffffffffffffffffffffffffffffffff168373ffffffffffffffffffffffffffffffffffffffff1614155b801562000211575060008060008573ffffffffffffffffffffffffffffffffffffffff1673ffffffffffffffffffffffffffffffffffffffff16815260200190815260200160002054145b91508115620002c75760016002805480600101828162000232919062000695565b9160005260206000209001600086909190916101000a81548173ffffffffffffffffffffffffffffffffffffffff021916908373ffffffffffffffffffffffffffffffffffffffff160217905550039050806000808573ffffffffffffffffffffffffffffffffffffffff1673ffffffffffffffffffffffffffffffffffffffff168152602001908152602001600020819055505b838060010194505062000114565b5050505050600073ffffffffffffffffffffffffffffffffffffffff168673ffffffffffffffffffffffffffffffffffffffff16141515156200031757600080fd5b6000851115156200032757600080fd5b60008260ff161115156200033a57600080fd5b6000811180156200034a57508085115b15156200035657600080fd5b600084511115156200036757600080fd5b600083511115156200037857600080fd5b85600360016101000a81548173ffffffffffffffffffffffffffffffffffffffff021916908373ffffffffffffffffffffffffffffffffffffffff160217905550846007819055508360049080519060200190620003d8929190620006c4565b508260059080519060200190620003f1929190620006c4565b5081600660006101000a81548160ff021916908360ff1602179055506200042d85826200043a6401000000000262001ae5176401000000009004565b5050505050505062000773565b60008060008060003373ffffffffffffffffffffffffffffffffffffffff1673ffffffffffffffffffffffffffffffffffffffff1681526020019081526020016000205490506002818154811015156200049057fe5b906000526020600020900160009054906101000a900473ffffffffffffffffffffffffffffffffffffffff1673ffffffffffffffffffffffffffffffffffffffff163373ffffffffffffffffffffffffffffffffffffffff16141515620004f657600080fd5b600360009054906101000a900460ff161515156200051357600080fd5b6001600360006101000a81548160ff021916908315150217905550600092505b6002805490508360ff161015620006285760028360ff168154811015156200055757fe5b906000526020600020900160009054906101000a900473ffffffffffffffffffffffffffffffffffffffff169150600073ffffffffffffffffffffffffffffffffffffffff168273ffffffffffffffffffffffffffffffffffffffff161415620005c1576200061a565b83850394508385111515620005d557600080fd5b83600860008473ffffffffffffffffffffffffffffffffffffffff1673ffffffffffffffffffffffffffffffffffffffff168152602001908152602001600020819055505b828060010193505062000533565b8460086000600360019054906101000a900473ffffffffffffffffffffffffffffffffffffffff1673ffffffffffffffffffffffffffffffffffffffff1673ffffffffffffffffffffffffffffffffffffffff168152602001908152602001600020819055505050505050565b815481835581811511620006bf57818360005260206000209182019101620006be91906200074b565b5b505050565b828054600181600116156101000203166002900490600052602060002090601f016020900481019282601f106200070757805160ff191683800117855562000738565b8280016001018555821562000738579182015b82811115620007375782518255916020019190600101906200071a565b5b5090506200074791906200074b565b5090565b6200077091905b808211156200076c57600081600090555060010162000752565b5090565b90565b611d6380620007836000396000f300606060405260043610610112576000357c0100000000000000000000000000000000000000000000000000000000900463ffffffff16806301ffc9a71461011757806306fdde0314610171578063095ea7b3146101ff57806318160ddd1461025957806323b872dd1461028257806327e235e3146102fb5780632add5a50146103485780632e572393146103ab578063313ce567146103f85780633cb8375114610427578063476b0913146104505780634d853ee5146104a557806355b6ed5c146104fa57806370a082311461057157806370d70e9b146105be57806395d89b4114610628578063a606b94a146106b6578063a9059cbb1461072f578063cae9ca5114610789578063dd62ed3e14610826575b600080fd5b341561012257600080fd5b61015760048080357bffffffffffffffffffffffffffffffffffffffffffffffffffffffff1916906020019091905050610892565b604051808215151515815260200191505060405180910390f35b341561017c57600080fd5b610184610d22565b6040518080602001828103825283818151815260200191508051906020019080838360005b838110156101c45780820151818401526020810190506101a9565b50505050905090810190601f1680156101f15780820380516001836020036101000a031916815260200191505b509250505060405180910390f35b341561020a57600080fd5b61023f600480803573ffffffffffffffffffffffffffffffffffffffff16906020019091908035906020019091905050610dc0565b604051808215151515815260200191505060405180910390f35b341561026457600080fd5b61026c6110f5565b6040518082815260200191505060405180910390f35b341561028d57600080fd5b6102e1600480803573ffffffffffffffffffffffffffffffffffffffff1690602001909190803573ffffffffffffffffffffffffffffffffffffffff169060200190919080359060200190919050506110fb565b604051808215151515815260200191505060405180910390f35b341561030657600080fd5b610332600480803573ffffffffffffffffffffffffffffffffffffffff169060200190919050506113c2565b6040518082815260200191505060405180910390f35b341561035357600080fd5b61036960048080359060200190919050506113da565b604051808273ffffffffffffffffffffffffffffffffffffffff1673ffffffffffffffffffffffffffffffffffffffff16815260200191505060405180910390f35b34156103b657600080fd5b6103e2600480803573ffffffffffffffffffffffffffffffffffffffff16906020019091905050611419565b6040518082815260200191505060405180910390f35b341561040357600080fd5b61040b611431565b604051808260ff1660ff16815260200191505060405180910390f35b341561043257600080fd5b61043a611444565b6040518082815260200191505060405180910390f35b341561045b57600080fd5b610463611451565b604051808273ffffffffffffffffffffffffffffffffffffffff1673ffffffffffffffffffffffffffffffffffffffff16815260200191505060405180910390f35b34156104b057600080fd5b6104b8611477565b604051808273ffffffffffffffffffffffffffffffffffffffff1673ffffffffffffffffffffffffffffffffffffffff16815260200191505060405180910390f35b341561050557600080fd5b610550600480803573ffffffffffffffffffffffffffffffffffffffff1690602001909190803573ffffffffffffffffffffffffffffffffffffffff1690602001909190505061149d565b60405180838152602001821515151581526020019250505060405180910390f35b341561057c57600080fd5b6105a8600480803573ffffffffffffffffffffffffffffffffffffffff169060200190919050506114db565b6040518082815260200191505060405180910390f35b34156105c957600080fd5b6105d1611524565b6040518080602001828103825283818151815260200191508051906020019060200280838360005b838110156106145780820151818401526020810190506105f9565b505050509050019250505060405180910390f35b341561063357600080fd5b61063b6115b8565b6040518080602001828103825283818151815260200191508051906020019080838360005b8381101561067b578082015181840152602081019050610660565b50505050905090810190601f1680156106a85780820380516001836020036101000a031916815260200191505b509250505060405180910390f35b34156106c157600080fd5b610715600480803573ffffffffffffffffffffffffffffffffffffffff1690602001909190803573ffffffffffffffffffffffffffffffffffffffff16906020019091908035906020019091905050611656565b604051808215151515815260200191505060405180910390f35b341561073a57600080fd5b61076f600480803573ffffffffffffffffffffffffffffffffffffffff16906020019091908035906020019091905050611801565b604051808215151515815260200191505060405180910390f35b341561079457600080fd5b61080c600480803573ffffffffffffffffffffffffffffffffffffffff1690602001909190803590602001909190803590602001908201803590602001908080601f016020809104026020016040519081016040528093929190818152602001838380828437820191505050505050919050506118c9565b604051808215151515815260200191505060405180910390f35b341561083157600080fd5b61087c600480803573ffffffffffffffffffffffffffffffffffffffff1690602001909190803573ffffffffffffffffffffffffffffffffffffffff16906020019091905050611a47565b6040518082815260200191505060405180910390f35b600060405180807f737570706f727473496e74657266616365286279746573342900000000000000815250601901905060405180910390207bffffffffffffffffffffffffffffffffffffffffffffffffffffffff1916827bffffffffffffffffffffffffffffffffffffffffffffffffffffffff19161480610ac0575060405180807f616c6c6f77616e636528616464726573732c6164647265737329000000000000815250601a019050604051809103902060405180807f617070726f766528616464726573732c75696e743235362900000000000000008152506018019050604051809103902060405180807f7472616e7366657246726f6d28616464726573732c616464726573732c75696e81526020017f74323536290000000000000000000000000000000000000000000000000000008152506025019050604051809103902060405180807f7472616e7366657228616464726573732c75696e7432353629000000000000008152506019019050604051809103902060405180807f62616c616e63654f6628616464726573732900000000000000000000000000008152506012019050604051809103902060405180807f746f74616c537570706c79282900000000000000000000000000000000000000815250600d019050604051809103902018181818187bffffffffffffffffffffffffffffffffffffffffffffffffffffffff1916827bffffffffffffffffffffffffffffffffffffffffffffffffffffffff1916145b80610d1b575060405180807f616c6c6f77616e636528616464726573732c6164647265737329000000000000815250601a019050604051809103902060405180807f617070726f766528616464726573732c75696e743235362900000000000000008152506018019050604051809103902060405180807f7472616e7366657246726f6d28616464726573732c616464726573732c75696e81526020017f74323536290000000000000000000000000000000000000000000000000000008152506025019050604051809103902060405180807f7472616e7366657228616464726573732c75696e7432353629000000000000008152506019019050604051809103902060405180807f62616c616e63654f6628616464726573732900000000000000000000000000008152506012019050604051809103902060405180807f746f74616c537570706c79282900000000000000000000000000000000000000815250600d019050604051809103902060405180807f646563696d616c73282900000000000000000000000000000000000000000000815250600a019050604051809103902060405180807f73796d626f6c28290000000000000000000000000000000000000000000000008152506008019050604051809103902060405180807f6e616d65282900000000000000000000000000000000000000000000000000008152506006019050604051809103902018181818181818187bffffffffffffffffffffffffffffffffffffffffffffffffffffffff1916827bffffffffffffffffffffffffffffffffffffffffffffffffffffffff1916145b9050919050565b60048054600181600116156101000203166002900480601f016020809104026020016040519081016040528092919081815260200182805460018160011615610100020316600290048015610db85780601f10610d8d57610100808354040283529160200191610db8565b820191906000526020600020905b815481529060010190602001808311610d9b57829003601f168201915b505050505081565b600080600960003373ffffffffffffffffffffffffffffffffffffffff1673ffffffffffffffffffffffffffffffffffffffff16815260200190815260200160002060008573ffffffffffffffffffffffffffffffffffffffff1673ffffffffffffffffffffffffffffffffffffffff16815260200190815260200160002090506000831415610f5357600960003373ffffffffffffffffffffffffffffffffffffffff1673ffffffffffffffffffffffffffffffffffffffff16815260200190815260200160002060008573ffffffffffffffffffffffffffffffffffffffff1673ffffffffffffffffffffffffffffffffffffffff1681526020019081526020016000206000808201600090556001820160006101000a81549060ff021916905550508373ffffffffffffffffffffffffffffffffffffffff163373ffffffffffffffffffffffffffffffffffffffff167f8c5be1e5ebec7d5bd14f71427d1e84f3dd0314c0f7b2291e5b200ac8c7c3b925856040518082815260200191505060405180910390a3600191506110ee565b8060010160009054906101000a900460ff161561107f57600960003373ffffffffffffffffffffffffffffffffffffffff1673ffffffffffffffffffffffffffffffffffffffff16815260200190815260200160002060008573ffffffffffffffffffffffffffffffffffffffff1673ffffffffffffffffffffffffffffffffffffffff1681526020019081526020016000206000808201600090556001820160006101000a81549060ff021916905550508373ffffffffffffffffffffffffffffffffffffffff163373ffffffffffffffffffffffffffffffffffffffff167f8e5b20b759a344163a5384df8ad0a0de915a6cf52f608c31f5f86728fc167c1e836000015486604051808381526020018281526020019250505060405180910390a3600091506110ee565b8281600001819055508373ffffffffffffffffffffffffffffffffffffffff163373ffffffffffffffffffffffffffffffffffffffff167f8c5be1e5ebec7d5bd14f71427d1e84f3dd0314c0f7b2291e5b200ac8c7c3b925856040518082815260200191505060405180910390a35b5092915050565b60075481565b600080600960008673ffffffffffffffffffffffffffffffffffffffff1673ffffffffffffffffffffffffffffffffffffffff16815260200190815260200160002060003373ffffffffffffffffffffffffffffffffffffffff1673ffffffffffffffffffffffffffffffffffffffff168152602001908152602001600020905082600860008773ffffffffffffffffffffffffffffffffffffffff1673ffffffffffffffffffffffffffffffffffffffff16815260200190815260200160002054101580156111cf575082816000015410155b15156111da57600080fd5b60008160000154141561128757600960008673ffffffffffffffffffffffffffffffffffffffff1673ffffffffffffffffffffffffffffffffffffffff16815260200190815260200160002060003373ffffffffffffffffffffffffffffffffffffffff1673ffffffffffffffffffffffffffffffffffffffff1681526020019081526020016000206000808201600090556001820160006101000a81549060ff021916905550506112b7565b60018160010160006101000a81548160ff0219169083151502179055508281600001600082825403925050819055505b82600860008673ffffffffffffffffffffffffffffffffffffffff1673ffffffffffffffffffffffffffffffffffffffff1681526020019081526020016000206000828254019250508190555082600860008773ffffffffffffffffffffffffffffffffffffffff1673ffffffffffffffffffffffffffffffffffffffff168152602001908152602001600020600082825403925050819055508373ffffffffffffffffffffffffffffffffffffffff168573ffffffffffffffffffffffffffffffffffffffff167fddf252ad1be2c89b69c2b068fc378daa952ba7f163c4a11628f55a4df523b3ef856040518082815260200191505060405180910390a360019150509392505050565b60086020528060005260406000206000915090505481565b6002818154811015156113e957fe5b90600052602060002090016000915054906101000a900473ffffffffffffffffffffffffffffffffffffffff1681565b60006020528060005260406000206000915090505481565b600660009054906101000a900460ff1681565b6000600280549050905090565b600360019054906101000a900473ffffffffffffffffffffffffffffffffffffffff1681565b600160009054906101000a900473ffffffffffffffffffffffffffffffffffffffff1681565b6009602052816000526040600020602052806000526040600020600091509150508060000154908060010160009054906101000a900460ff16905082565b6000600860008373ffffffffffffffffffffffffffffffffffffffff1673ffffffffffffffffffffffffffffffffffffffff168152602001908152602001600020549050919050565b61152c611ad1565b60028054806020026020016040519081016040528092919081815260200182805480156115ae57602002820191906000526020600020905b8160009054906101000a900473ffffffffffffffffffffffffffffffffffffffff1673ffffffffffffffffffffffffffffffffffffffff1681526020019060010190808311611564575b5050505050905090565b60058054600181600116156101000203166002900480601f01602080910402602001604051908101604052809291908181526020018280546001816001161561010002031660029004801561164e5780601f106116235761010080835404028352916020019161164e565b820191906000526020600020905b81548152906001019060200180831161163157829003601f168201915b505050505081565b6000806000600860008773ffffffffffffffffffffffffffffffffffffffff1673ffffffffffffffffffffffffffffffffffffffff168152602001908152602001600020549150600860008673ffffffffffffffffffffffffffffffffffffffff1673ffffffffffffffffffffffffffffffffffffffff1681526020019081526020016000205490508382101515156116ee57600080fd5b8382039150838101905083811015151561170757600080fd5b81600860008873ffffffffffffffffffffffffffffffffffffffff1673ffffffffffffffffffffffffffffffffffffffff1681526020019081526020016000208190555080600860008773ffffffffffffffffffffffffffffffffffffffff1673ffffffffffffffffffffffffffffffffffffffff168152602001908152602001600020819055508473ffffffffffffffffffffffffffffffffffffffff168673ffffffffffffffffffffffffffffffffffffffff167fddf252ad1be2c89b69c2b068fc378daa952ba7f163c4a11628f55a4df523b3ef866040518082815260200191505060405180910390a36001925050509392505050565b60008073ffffffffffffffffffffffffffffffffffffffff168373ffffffffffffffffffffffffffffffffffffffff161415151561183e57600080fd5b60008214156118b5578273ffffffffffffffffffffffffffffffffffffffff163373ffffffffffffffffffffffffffffffffffffffff167fddf252ad1be2c89b69c2b068fc378daa952ba7f163c4a11628f55a4df523b3ef846040518082815260200191505060405180910390a3600190506118c3565b6118c0338484611656565b90505b92915050565b60008060006118d88686610dc0565b91508115611a3b578590508073ffffffffffffffffffffffffffffffffffffffff16638f4ffcb1338730886040518563ffffffff167c0100000000000000000000000000000000000000000000000000000000028152600401808573ffffffffffffffffffffffffffffffffffffffff1673ffffffffffffffffffffffffffffffffffffffff1681526020018481526020018373ffffffffffffffffffffffffffffffffffffffff1673ffffffffffffffffffffffffffffffffffffffff16815260200180602001828103825283818151815260200191508051906020019080838360005b838110156119d85780820151818401526020810190506119bd565b50505050905090810190601f168015611a055780820380516001836020036101000a031916815260200191505b5095505050505050600060405180830381600087803b1515611a2657600080fd5b6102c65a03f11515611a3757600080fd5b5050505b81925050509392505050565b6000600960008473ffffffffffffffffffffffffffffffffffffffff1673ffffffffffffffffffffffffffffffffffffffff16815260200190815260200160002060008373ffffffffffffffffffffffffffffffffffffffff1673ffffffffffffffffffffffffffffffffffffffff16815260200190815260200160002060000154905092915050565b602060405190810160405280600081525090565b60008060008060003373ffffffffffffffffffffffffffffffffffffffff1673ffffffffffffffffffffffffffffffffffffffff168152602001908152602001600020549050600281815481101515611b3a57fe5b906000526020600020900160009054906101000a900473ffffffffffffffffffffffffffffffffffffffff1673ffffffffffffffffffffffffffffffffffffffff163373ffffffffffffffffffffffffffffffffffffffff16141515611b9f57600080fd5b600360009054906101000a900460ff16151515611bbb57600080fd5b6001600360006101000a81548160ff021916908315150217905550600092505b6002805490508360ff161015611cca5760028360ff16815481101515611bfd57fe5b906000526020600020900160009054906101000a900473ffffffffffffffffffffffffffffffffffffffff169150600073ffffffffffffffffffffffffffffffffffffffff168273ffffffffffffffffffffffffffffffffffffffff161415611c6557611cbd565b83850394508385111515611c7857600080fd5b83600860008473ffffffffffffffffffffffffffffffffffffffff1673ffffffffffffffffffffffffffffffffffffffff168152602001908152602001600020819055505b8280600101935050611bdb565b8460086000600360019054906101000a900473ffffffffffffffffffffffffffffffffffffffff1673ffffffffffffffffffffffffffffffffffffffff1673ffffffffffffffffffffffffffffffffffffffff1681526020019081526020016000208190555050505050505600a165627a7a7230582077207c9009340f8072c8d2ed226ce557e6bfab65c066ae9048571b4053d3e6ad0029",
  "source": "pragma solidity ^0.4.17;\n\nimport './Cofounded.sol';\nimport './ERC20.sol';\nimport './ERC165.sol';\nimport './ApprovedAllowanceAgent.sol';\nimport './InterfaceSignatureConstants.sol';\n\n/// @title an original cofounder based ERC-20 compliant token\n/// @author Mish Ochu\n/// @dev Ref: https://github.com/ethereum/EIPs/issues/721\n//http://solidity.readthedocs.io/en/develop/contracts.html#arguments-for-base-constructors\ncontract OriginalToken is Cofounded, ERC20, ERC165, InterfaceSignatureConstants {\n    bool private hasExecutedCofounderDistribution;\n    address public airdropCampaign;\n    struct Allowance {\n      uint256 amount;\n      bool    hasBeenPartiallyWithdrawn;\n    }\n\n    //***** Apparently Optional *****/\n    /// @dev returns the name of the token\n    string public name;\n    /// @dev returns the symbol of the token (e.g. 'OCC')\n    string public symbol;\n    /// @dev returns the number of decimals the tokens use\n    uint8 public decimals;\n    //**********/\n\n    /// @dev  returns the total token supply\n    /// @note implemented as a state variable with an automatic (compiler provided) getter\n    ///       instead of a constant (view/readonly) function.\n    uint256 public totalSupply;\n\n    uint256 constant private MAX_UINT256 = 2**256 - 1;\n\n    mapping (address => uint256) public balances;\n    // TODO: determine if the gas cost for handling the race condition\n    //       (outlined here: https://github.com/ethereum/EIPs/issues/20#issuecomment-263524729)\n    //       is cheaper this way (or this way: https://github.com/Giveth/minime/blob/master/contracts/MiniMeToken.sol#L221-L225)\n    mapping (address => mapping (address => Allowance)) public allowances;\n\n  /// @dev creates the token\n  /// NOTE  passes tokenCofounders to base contract\n  /// see   Cofounded\n  function OriginalToken (address[15] tokenCofounders,\n                          address tokenAirdropCampaign,\n                          uint256 tokenTotalSupply,\n                          string tokenName,\n                          string tokenSymbol,\n                          uint8 tokenDecimals,\n                          uint256 cofounderDistribution) Cofounded(tokenCofounders) public {\n    require(tokenAirdropCampaign != address(0));\n    require(tokenTotalSupply > 0);\n    require(tokenDecimals > 0);\n    require(cofounderDistribution > 0 && tokenTotalSupply > cofounderDistribution);\n\n    require(bytes(tokenName).length > 0);\n    require(bytes(tokenSymbol).length > 0);\n\n    airdropCampaign = tokenAirdropCampaign;\n    totalSupply = tokenTotalSupply;\n    name = tokenName;\n    symbol = tokenSymbol;\n    decimals = tokenDecimals;\n\n    // divvy up initial token supply accross cofounders\n    // TODO: ensure each cofounder gets an equal base distribution\n    distributeToCofounders(tokenTotalSupply, cofounderDistribution);\n  }\n\n  function distributeToCofounders (uint256 initialSupply, uint256 cofounderDistribution) private restricted {\n    require(!hasExecutedCofounderDistribution);\n\n    hasExecutedCofounderDistribution = true;\n\n    for (uint8 x = 0; x < cofounders.length; x++) {\n      address cofounder = cofounders[x];\n\n      if (cofounder == address(0)) continue;\n\n      initialSupply -= cofounderDistribution;\n      // there should be some left over for the airdrop campaign\n      // otherwise don't create this contract\n      require(initialSupply > cofounderDistribution);\n      balances[cofounder] = cofounderDistribution;\n    }\n\n    balances[airdropCampaign] = initialSupply;\n  }\n\n  function transfer (address to, uint256 value) public returns (bool) {\n    // don't burn these tokens\n    require(to != address(0));\n    // match spec and emit events on 0 value\n    if (value == 0) {\n      Transfer(msg.sender, to, value);\n      return true;\n    }\n\n    return transferBalance (msg.sender, to, value);\n  }\n\n  function transferFrom (address from, address to, uint256 value) public returns (bool success) {\n        Allowance storage allowance = allowances[from][msg.sender];\n        require(balances[from] >= value && allowance.amount >= value);\n\n        if (allowance.amount == 0) {\n          delete allowances[from][msg.sender];\n        } else {\n          allowance.hasBeenPartiallyWithdrawn = true;\n          allowance.amount -= value;\n        }\n\n        balances[to] += value;\n        balances[from] -= value;\n        Transfer(from, to, value);\n        return true;   \n  }\n\n  event ApprovalDenied (address indexed owner, address indexed spender, uint256 currentValue, uint256 value);\n\n  // TODO: test with an unintialized Allowance struct\n  function approve (address spender, uint256 value) public returns (bool success) {\n    Allowance storage allowance = allowances[msg.sender][spender];\n\n    if (value == 0) {\n      delete allowances[msg.sender][spender];\n      Approval(msg.sender, spender, value);\n      return true;\n    }\n\n    if (allowance.hasBeenPartiallyWithdrawn) {\n      delete allowances[msg.sender][spender];\n      ApprovalDenied(msg.sender, spender, allowance.amount, value);\n      return false;\n    } else {\n      allowance.amount = value;\n      Approval(msg.sender, spender, value);\n    }\n  }\n\n  function approveAndCall (address spender, uint256 value, bytes extraData) public returns (bool success) {\n      bool hasSuccess;\n\n      if (hasSuccess = approve(spender, value)) {\n        ApprovedAllowanceAgent agent = ApprovedAllowanceAgent(spender);\n        agent.receiveApproval(msg.sender, value, this, extraData);\n      }\n\n      return hasSuccess;\n    }\n \n\n  // TODO: compare gas cost estimations between this and https://github.com/ConsenSys/Tokens/blob/master/contracts/eip20/EIP20.sol#L39-L45\n  function transferBalance (address from, address to, uint256 value) public returns (bool) {\n    uint256 senderBalance = balances[from];\n    uint256 receiverBalance = balances[to];\n    require(senderBalance >= value);\n    senderBalance -= value;\n    receiverBalance += value;\n    // overflow check (altough one could use https://github.com/OpenZeppelin/zeppelin-solidity/blob/master/contracts/math/SafeMath.sol)\n    require(receiverBalance >= value);\n\n    balances[from] = senderBalance;\n    balances[to] = receiverBalance;\n\n    Transfer(from, to, value);\n    return true;\n  }\n\n \n  // TODO: test with an unintialized Allowance struct\n  function allowance (address owner, address spender) public constant returns (uint256 remaining) {\n    return allowances[owner][spender].amount;\n  }\n\n  function balanceOf (address owner) public constant returns (uint256 balance) {\n    return balances[owner];\n  }\n\n  function supportsInterface (bytes4 interfaceID) external constant returns (bool) {\n    return ((interfaceID == InterfaceSignature_ERC165) ||\n            (interfaceID == InterfaceSignature_ERC20)  ||\n            (interfaceID == InterfaceSignature_ERC20_PlusOptions));\n  }\n}\n\n",
  "sourcePath": "/Users/mishochu/Source/occ/occ-contracts/contracts/OriginalToken.sol",
  "compiler": {
    "name": "solc",
    "version": "0.4.18+commit.9cf6e910.Emscripten.clang"
  },
  "schemaVersion": "1.0.1",
  "updatedAt": "2018-01-19T17:32:50.822Z"
}