{
  "contractName": "OriginalToken",
  "abi": [
    {
      "constant": true,
      "inputs": [
        {
          "name": "interfaceID",
          "type": "bytes4"
        }
      ],
      "name": "supportsInterface",
      "outputs": [
        {
          "name": "",
          "type": "bool"
        }
      ],
      "payable": false,
      "stateMutability": "view",
      "type": "function"
    },
    {
      "constant": true,
      "inputs": [],
      "name": "name",
      "outputs": [
        {
          "name": "",
          "type": "string"
        }
      ],
      "payable": false,
      "stateMutability": "view",
      "type": "function"
    },
    {
      "constant": false,
      "inputs": [
        {
          "name": "spender",
          "type": "address"
        },
        {
          "name": "value",
          "type": "uint256"
        }
      ],
      "name": "approve",
      "outputs": [
        {
          "name": "success",
          "type": "bool"
        }
      ],
      "payable": false,
      "stateMutability": "nonpayable",
      "type": "function"
    },
    {
      "constant": true,
      "inputs": [],
      "name": "totalSupply",
      "outputs": [
        {
          "name": "",
          "type": "uint256"
        }
      ],
      "payable": false,
      "stateMutability": "view",
      "type": "function"
    },
    {
      "constant": false,
      "inputs": [
        {
          "name": "from",
          "type": "address"
        },
        {
          "name": "to",
          "type": "address"
        },
        {
          "name": "value",
          "type": "uint256"
        }
      ],
      "name": "transferFrom",
      "outputs": [
        {
          "name": "success",
          "type": "bool"
        }
      ],
      "payable": false,
      "stateMutability": "nonpayable",
      "type": "function"
    },
    {
      "constant": true,
      "inputs": [
        {
          "name": "",
          "type": "address"
        }
      ],
      "name": "balances",
      "outputs": [
        {
          "name": "",
          "type": "uint256"
        }
      ],
      "payable": false,
      "stateMutability": "view",
      "type": "function"
    },
    {
      "constant": true,
      "inputs": [
        {
          "name": "",
          "type": "uint256"
        }
      ],
      "name": "cofounders",
      "outputs": [
        {
          "name": "",
          "type": "address"
        }
      ],
      "payable": false,
      "stateMutability": "view",
      "type": "function"
    },
    {
      "constant": true,
      "inputs": [],
      "name": "decimals",
      "outputs": [
        {
          "name": "",
          "type": "uint8"
        }
      ],
      "payable": false,
      "stateMutability": "view",
      "type": "function"
    },
    {
      "constant": true,
      "inputs": [
        {
          "name": "",
          "type": "address"
        }
      ],
      "name": "cofounderIndices",
      "outputs": [
        {
          "name": "",
          "type": "uint256"
        }
      ],
      "payable": false,
      "stateMutability": "view",
      "type": "function"
    },
    {
      "constant": true,
      "inputs": [],
      "name": "getCofounderCount",
      "outputs": [
        {
          "name": "",
          "type": "uint256"
        }
      ],
      "payable": false,
      "stateMutability": "view",
      "type": "function"
    },
    {
      "constant": true,
      "inputs": [
        {
          "name": "",
          "type": "address"
        },
        {
          "name": "",
          "type": "address"
        }
      ],
      "name": "allowances",
      "outputs": [
        {
          "name": "amount",
          "type": "uint256"
        },
        {
          "name": "hasBeenPartiallyWithdrawn",
          "type": "bool"
        }
      ],
      "payable": false,
      "stateMutability": "view",
      "type": "function"
    },
    {
      "constant": true,
      "inputs": [
        {
          "name": "owner",
          "type": "address"
        }
      ],
      "name": "balanceOf",
      "outputs": [
        {
          "name": "balance",
          "type": "uint256"
        }
      ],
      "payable": false,
      "stateMutability": "view",
      "type": "function"
    },
    {
      "constant": true,
      "inputs": [],
      "name": "getCofounders",
      "outputs": [
        {
          "name": "",
          "type": "address[]"
        }
      ],
      "payable": false,
      "stateMutability": "view",
      "type": "function"
    },
    {
      "constant": true,
      "inputs": [],
      "name": "symbol",
      "outputs": [
        {
          "name": "",
          "type": "string"
        }
      ],
      "payable": false,
      "stateMutability": "view",
      "type": "function"
    },
    {
      "constant": false,
      "inputs": [
        {
          "name": "to",
          "type": "address"
        },
        {
          "name": "value",
          "type": "uint256"
        }
      ],
      "name": "transfer",
      "outputs": [
        {
          "name": "",
          "type": "bool"
        }
      ],
      "payable": false,
      "stateMutability": "nonpayable",
      "type": "function"
    },
    {
      "constant": true,
      "inputs": [
        {
          "name": "owner",
          "type": "address"
        },
        {
          "name": "spender",
          "type": "address"
        }
      ],
      "name": "allowance",
      "outputs": [
        {
          "name": "remaining",
          "type": "uint256"
        }
      ],
      "payable": false,
      "stateMutability": "view",
      "type": "function"
    },
    {
      "inputs": [
        {
          "name": "tokenCofounders",
          "type": "address[]"
        },
        {
          "name": "cofounderDistribution",
          "type": "uint256"
        }
      ],
      "payable": false,
      "stateMutability": "nonpayable",
      "type": "constructor"
    },
    {
      "anonymous": false,
      "inputs": [
        {
          "indexed": true,
          "name": "owner",
          "type": "address"
        },
        {
          "indexed": true,
          "name": "spender",
          "type": "address"
        }
      ],
      "name": "ApprovalDenied",
      "type": "event"
    },
    {
      "anonymous": false,
      "inputs": [
        {
          "indexed": true,
          "name": "from",
          "type": "address"
        },
        {
          "indexed": true,
          "name": "to",
          "type": "address"
        },
        {
          "indexed": false,
          "name": "value",
          "type": "uint256"
        }
      ],
      "name": "Transfer",
      "type": "event"
    },
    {
      "anonymous": false,
      "inputs": [
        {
          "indexed": true,
          "name": "owner",
          "type": "address"
        },
        {
          "indexed": true,
          "name": "spender",
          "type": "address"
        },
        {
          "indexed": false,
          "name": "value",
          "type": "uint256"
        }
      ],
      "name": "Approval",
      "type": "event"
    }
  ],
  "bytecode": "0x60606040526c01431e0fae6d7217caa000000060035534156200002157600080fd5b604051620019903803806200199083398101604052808051820191906020018051906020019091905050600080600084600080600080600180548060010182816200006d9190620003d1565b9160005260206000209001600033909190916101000a81548173ffffffffffffffffffffffffffffffffffffffff021916908373ffffffffffffffffffffffffffffffffffffffff16021790555050600093505b84518460ff1610156200026457848460ff16815181101515620000e057fe5b906020019060200201519250600073ffffffffffffffffffffffffffffffffffffffff168373ffffffffffffffffffffffffffffffffffffffff16141580156200015657503373ffffffffffffffffffffffffffffffffffffffff168373ffffffffffffffffffffffffffffffffffffffff1614155b8015620001a1575060008060008573ffffffffffffffffffffffffffffffffffffffff1673ffffffffffffffffffffffffffffffffffffffff16815260200190815260200160002054145b9150811562000256576001808054806001018281620001c19190620003d1565b9160005260206000209001600086909190916101000a81548173ffffffffffffffffffffffffffffffffffffffff021916908373ffffffffffffffffffffffffffffffffffffffff160217905550039050806000808573ffffffffffffffffffffffffffffffffffffffff1673ffffffffffffffffffffffffffffffffffffffff168152602001908152602001600020819055505b8380600101945050620000c1565b5050505050600260009054906101000a900460ff1680620002855750600084145b8062000292575083600354105b156200029d57600080fd5b6001600260006101000a81548160ff0219169083151502179055506003549250600091505b6001805490508260ff161015620003795760018260ff16815481101515620002e657fe5b906000526020600020900160009054906101000a900473ffffffffffffffffffffffffffffffffffffffff1690508383039250838310156200032757600080fd5b83600460008373ffffffffffffffffffffffffffffffffffffffff1673ffffffffffffffffffffffffffffffffffffffff168152602001908152602001600020819055508180600101925050620002c2565b82600460003373ffffffffffffffffffffffffffffffffffffffff1673ffffffffffffffffffffffffffffffffffffffff16815260200190815260200160002060008282540192505081905550505050505062000428565b815481835581811511620003fb57818360005260206000209182019101620003fa919062000400565b5b505050565b6200042591905b808211156200042157600081600090555060010162000407565b5090565b90565b61155880620004386000396000f3006060604052600436106100e6576000357c0100000000000000000000000000000000000000000000000000000000900463ffffffff16806301ffc9a7146100eb57806306fdde0314610145578063095ea7b3146101d357806318160ddd1461022d57806323b872dd1461025657806327e235e3146102cf5780632add5a501461031c578063313ce5671461037f578063384bfacb146103ae5780633cb83751146103fb57806355b6ed5c1461042457806370a082311461049b57806370d70e9b146104e857806395d89b4114610552578063a9059cbb146105e0578063dd62ed3e1461063a575b600080fd5b34156100f657600080fd5b61012b60048080357bffffffffffffffffffffffffffffffffffffffffffffffffffffffff19169060200190919050506106a6565b604051808215151515815260200191505060405180910390f35b341561015057600080fd5b610158610b36565b6040518080602001828103825283818151815260200191508051906020019080838360005b8381101561019857808201518184015260208101905061017d565b50505050905090810190601f1680156101c55780820380516001836020036101000a031916815260200191505b509250505060405180910390f35b34156101de57600080fd5b610213600480803573ffffffffffffffffffffffffffffffffffffffff16906020019091908035906020019091905050610b6f565b604051808215151515815260200191505060405180910390f35b341561023857600080fd5b610240610e91565b6040518082815260200191505060405180910390f35b341561026157600080fd5b6102b5600480803573ffffffffffffffffffffffffffffffffffffffff1690602001909190803573ffffffffffffffffffffffffffffffffffffffff16906020019091908035906020019091905050610e97565b604051808215151515815260200191505060405180910390f35b34156102da57600080fd5b610306600480803573ffffffffffffffffffffffffffffffffffffffff16906020019091905050611016565b6040518082815260200191505060405180910390f35b341561032757600080fd5b61033d600480803590602001909190505061102e565b604051808273ffffffffffffffffffffffffffffffffffffffff1673ffffffffffffffffffffffffffffffffffffffff16815260200191505060405180910390f35b341561038a57600080fd5b61039261106d565b604051808260ff1660ff16815260200191505060405180910390f35b34156103b957600080fd5b6103e5600480803573ffffffffffffffffffffffffffffffffffffffff16906020019091905050611072565b6040518082815260200191505060405180910390f35b341561040657600080fd5b61040e61108a565b6040518082815260200191505060405180910390f35b341561042f57600080fd5b61047a600480803573ffffffffffffffffffffffffffffffffffffffff1690602001909190803573ffffffffffffffffffffffffffffffffffffffff16906020019091905050611097565b60405180838152602001821515151581526020019250505060405180910390f35b34156104a657600080fd5b6104d2600480803573ffffffffffffffffffffffffffffffffffffffff169060200190919050506110d5565b6040518082815260200191505060405180910390f35b34156104f357600080fd5b6104fb61111e565b6040518080602001828103825283818151815260200191508051906020019060200280838360005b8381101561053e578082015181840152602081019050610523565b505050509050019250505060405180910390f35b341561055d57600080fd5b6105656111b2565b6040518080602001828103825283818151815260200191508051906020019080838360005b838110156105a557808201518184015260208101905061058a565b50505050905090810190601f1680156105d25780820380516001836020036101000a031916815260200191505b509250505060405180910390f35b34156105eb57600080fd5b610620600480803573ffffffffffffffffffffffffffffffffffffffff169060200190919080359060200190919050506111eb565b604051808215151515815260200191505060405180910390f35b341561064557600080fd5b610690600480803573ffffffffffffffffffffffffffffffffffffffff1690602001909190803573ffffffffffffffffffffffffffffffffffffffff16906020019091905050611200565b6040518082815260200191505060405180910390f35b600060405180807f737570706f727473496e74657266616365286279746573342900000000000000815250601901905060405180910390207bffffffffffffffffffffffffffffffffffffffffffffffffffffffff1916827bffffffffffffffffffffffffffffffffffffffffffffffffffffffff191614806108d4575060405180807f616c6c6f77616e636528616464726573732c6164647265737329000000000000815250601a019050604051809103902060405180807f617070726f766528616464726573732c75696e743235362900000000000000008152506018019050604051809103902060405180807f7472616e7366657246726f6d28616464726573732c616464726573732c75696e81526020017f74323536290000000000000000000000000000000000000000000000000000008152506025019050604051809103902060405180807f7472616e7366657228616464726573732c75696e7432353629000000000000008152506019019050604051809103902060405180807f62616c616e63654f6628616464726573732900000000000000000000000000008152506012019050604051809103902060405180807f746f74616c537570706c79282900000000000000000000000000000000000000815250600d019050604051809103902018181818187bffffffffffffffffffffffffffffffffffffffffffffffffffffffff1916827bffffffffffffffffffffffffffffffffffffffffffffffffffffffff1916145b80610b2f575060405180807f616c6c6f77616e636528616464726573732c6164647265737329000000000000815250601a019050604051809103902060405180807f617070726f766528616464726573732c75696e743235362900000000000000008152506018019050604051809103902060405180807f7472616e7366657246726f6d28616464726573732c616464726573732c75696e81526020017f74323536290000000000000000000000000000000000000000000000000000008152506025019050604051809103902060405180807f7472616e7366657228616464726573732c75696e7432353629000000000000008152506019019050604051809103902060405180807f62616c616e63654f6628616464726573732900000000000000000000000000008152506012019050604051809103902060405180807f746f74616c537570706c79282900000000000000000000000000000000000000815250600d019050604051809103902060405180807f646563696d616c73282900000000000000000000000000000000000000000000815250600a019050604051809103902060405180807f73796d626f6c28290000000000000000000000000000000000000000000000008152506008019050604051809103902060405180807f6e616d65282900000000000000000000000000000000000000000000000000008152506006019050604051809103902018181818181818187bffffffffffffffffffffffffffffffffffffffffffffffffffffffff1916827bffffffffffffffffffffffffffffffffffffffffffffffffffffffff1916145b9050919050565b6040805190810160405280601481526020017f4f726967696e616c2043727970746f20436f696e00000000000000000000000081525081565b600080600560003373ffffffffffffffffffffffffffffffffffffffff1673ffffffffffffffffffffffffffffffffffffffff16815260200190815260200160002060008573ffffffffffffffffffffffffffffffffffffffff1673ffffffffffffffffffffffffffffffffffffffff16815260200190815260200160002090506000831415610d0257600560003373ffffffffffffffffffffffffffffffffffffffff1673ffffffffffffffffffffffffffffffffffffffff16815260200190815260200160002060008573ffffffffffffffffffffffffffffffffffffffff1673ffffffffffffffffffffffffffffffffffffffff1681526020019081526020016000206000808201600090556001820160006101000a81549060ff021916905550508373ffffffffffffffffffffffffffffffffffffffff163373ffffffffffffffffffffffffffffffffffffffff167f8c5be1e5ebec7d5bd14f71427d1e84f3dd0314c0f7b2291e5b200ac8c7c3b925856040518082815260200191505060405180910390a360019150610e8a565b8060010160009054906101000a900460ff1615610e1757600560003373ffffffffffffffffffffffffffffffffffffffff1673ffffffffffffffffffffffffffffffffffffffff16815260200190815260200160002060008573ffffffffffffffffffffffffffffffffffffffff1673ffffffffffffffffffffffffffffffffffffffff1681526020019081526020016000206000808201600090556001820160006101000a81549060ff021916905550508373ffffffffffffffffffffffffffffffffffffffff163373ffffffffffffffffffffffffffffffffffffffff167f110b5f76f5787fcf8293550462201867592c381b89f6c4204b06a183b3e8b7af60405160405180910390a360009150610e8a565b8281600001819055508373ffffffffffffffffffffffffffffffffffffffff163373ffffffffffffffffffffffffffffffffffffffff167f8c5be1e5ebec7d5bd14f71427d1e84f3dd0314c0f7b2291e5b200ac8c7c3b925856040518082815260200191505060405180910390a3600191505b5092915050565b60035481565b600080600560008673ffffffffffffffffffffffffffffffffffffffff1673ffffffffffffffffffffffffffffffffffffffff16815260200190815260200160002060003373ffffffffffffffffffffffffffffffffffffffff1673ffffffffffffffffffffffffffffffffffffffff16815260200190815260200160002090508281600001541015610f2957600080fd5b60018160010160006101000a81548160ff02191690831515021790555082816000016000828254039250508190555060008160000154141561100157600560008673ffffffffffffffffffffffffffffffffffffffff1673ffffffffffffffffffffffffffffffffffffffff16815260200190815260200160002060003373ffffffffffffffffffffffffffffffffffffffff1673ffffffffffffffffffffffffffffffffffffffff1681526020019081526020016000206000808201600090556001820160006101000a81549060ff021916905550505b61100c85858561128a565b9150509392505050565b60046020528060005260406000206000915090505481565b60018181548110151561103d57fe5b90600052602060002090016000915054906101000a900473ffffffffffffffffffffffffffffffffffffffff1681565b601281565b60006020528060005260406000206000915090505481565b6000600180549050905090565b6005602052816000526040600020602052806000526040600020600091509150508060000154908060010160009054906101000a900460ff16905082565b6000600460008373ffffffffffffffffffffffffffffffffffffffff1673ffffffffffffffffffffffffffffffffffffffff168152602001908152602001600020549050919050565b611126611518565b60018054806020026020016040519081016040528092919081815260200182805480156111a857602002820191906000526020600020905b8160009054906101000a900473ffffffffffffffffffffffffffffffffffffffff1673ffffffffffffffffffffffffffffffffffffffff168152602001906001019080831161115e575b5050505050905090565b6040805190810160405280600381526020017f4f4343000000000000000000000000000000000000000000000000000000000081525081565b60006111f833848461128a565b905092915050565b6000600560008473ffffffffffffffffffffffffffffffffffffffff1673ffffffffffffffffffffffffffffffffffffffff16815260200190815260200160002060008373ffffffffffffffffffffffffffffffffffffffff1673ffffffffffffffffffffffffffffffffffffffff16815260200190815260200160002060000154905092915050565b60008060008073ffffffffffffffffffffffffffffffffffffffff168573ffffffffffffffffffffffffffffffffffffffff1614806112f457508473ffffffffffffffffffffffffffffffffffffffff168673ffffffffffffffffffffffffffffffffffffffff16145b156112fe57600080fd5b6000841415611375578473ffffffffffffffffffffffffffffffffffffffff163373ffffffffffffffffffffffffffffffffffffffff167fddf252ad1be2c89b69c2b068fc378daa952ba7f163c4a11628f55a4df523b3ef866040518082815260200191505060405180910390a36001925061150f565b600460008773ffffffffffffffffffffffffffffffffffffffff1673ffffffffffffffffffffffffffffffffffffffff168152602001908152602001600020549150600460008673ffffffffffffffffffffffffffffffffffffffff1673ffffffffffffffffffffffffffffffffffffffff1681526020019081526020016000205490508382101561140657600080fd5b838203915083810190508381101561141d57600080fd5b81600460008873ffffffffffffffffffffffffffffffffffffffff1673ffffffffffffffffffffffffffffffffffffffff1681526020019081526020016000208190555080600460008773ffffffffffffffffffffffffffffffffffffffff1673ffffffffffffffffffffffffffffffffffffffff168152602001908152602001600020819055508473ffffffffffffffffffffffffffffffffffffffff168673ffffffffffffffffffffffffffffffffffffffff167fddf252ad1be2c89b69c2b068fc378daa952ba7f163c4a11628f55a4df523b3ef866040518082815260200191505060405180910390a3600192505b50509392505050565b6020604051908101604052806000815250905600a165627a7a723058203e772ab407df884ddbc2c7a1fd8201ebc9fcff0eaf8f848b0e7dabd7341f6e900029",
  "source": "pragma solidity ^0.4.17;\n\nimport './Cofounded.sol';\nimport './ERC20.sol';\nimport './ERC165.sol';\nimport './InterfaceSignatureConstants.sol';\n\n/// @title an original cofounder based ERC-20 compliant token\n/// @author Mish Ochu\n/// @dev Ref: https://github.com/ethereum/EIPs/issues/721\n//http://solidity.readthedocs.io/en/develop/contracts.html#arguments-for-base-constructors\ncontract OriginalToken is Cofounded, ERC20, ERC165, InterfaceSignatureConstants {\n    bool private hasExecutedCofounderDistribution;\n    struct Allowance {\n      uint256 amount;\n      bool    hasBeenPartiallyWithdrawn;\n    }\n\n    //***** Apparently Optional *****/\n    /// @dev returns the name of the token\n    string public constant name = 'Original Crypto Coin';\n    /// @dev returns the symbol of the token (e.g. 'OCC')\n    string public constant symbol = 'OCC';\n    /// @dev returns the number of decimals the tokens use\n    uint8 public constant decimals = 18;\n    //**********/\n\n    /// @dev  returns the total token supply\n    /// @note implemented as a state variable with an automatic (compiler provided) getter\n    ///       instead of a constant (view/readonly) function.\n    uint256 public totalSupply = 100000000000000000000000000000;\n\n    mapping (address => uint256) public balances;\n    // TODO: determine if the gas cost for handling the race condition\n    //       (outlined here: https://github.com/ethereum/EIPs/issues/20#issuecomment-263524729)\n    //       is cheaper this way (or this way: https://github.com/Giveth/minime/blob/master/contracts/MiniMeToken.sol#L221-L225)\n    mapping (address => mapping (address => Allowance)) public allowances;\n\n  /// @dev creates the token\n  /// NOTE  passes tokenCofounders to base contract\n  /// see   Cofounded\n  function OriginalToken (address[] tokenCofounders,\n                          uint256 cofounderDistribution) Cofounded(tokenCofounders) public { \n\n    if (hasExecutedCofounderDistribution ||\n        cofounderDistribution == 0 || \n        totalSupply < cofounderDistribution) revert();\n\n    hasExecutedCofounderDistribution = true;\n    uint256 initialSupply = totalSupply;\n\n    // divvy up initial token supply accross cofounders\n    // TODO: ensure each cofounder gets an equal base distribution\n\n    for (uint8 x = 0; x < cofounders.length; x++) {\n      address cofounder = cofounders[x];\n\n      initialSupply -= cofounderDistribution;\n      // there should be some left over for the airdrop campaign\n      // otherwise don't create this contract\n      if (initialSupply < cofounderDistribution) revert();\n      balances[cofounder] = cofounderDistribution;\n    }\n\n    balances[msg.sender] += initialSupply;\n  }\n\n  function transfer (address to, uint256 value) public returns (bool) {\n    return transferBalance (msg.sender, to, value);\n  }\n\n  function transferFrom (address from, address to, uint256 value) public returns (bool success) {\n    Allowance storage allowance = allowances[from][msg.sender];\n    if (allowance.amount < value) revert();\n\n    allowance.hasBeenPartiallyWithdrawn = true;\n    allowance.amount -= value;\n\n    if (allowance.amount == 0) {\n      delete allowances[from][msg.sender];\n    }\n\n    return transferBalance(from, to, value);\n  }\n\n  event ApprovalDenied (address indexed owner, address indexed spender);\n\n  // TODO: test with an unintialized Allowance struct\n  function approve (address spender, uint256 value) public returns (bool success) {\n    Allowance storage allowance = allowances[msg.sender][spender];\n\n    if (value == 0) {\n      delete allowances[msg.sender][spender];\n      Approval(msg.sender, spender, value);\n      return true;\n    }\n\n    if (allowance.hasBeenPartiallyWithdrawn) {\n      delete allowances[msg.sender][spender];\n      ApprovalDenied(msg.sender, spender);\n      return false;\n    } else {\n      allowance.amount = value;\n      Approval(msg.sender, spender, value);\n    }\n\n    return true;\n  }\n\n  // TODO: compare gas cost estimations between this and https://github.com/ConsenSys/Tokens/blob/master/contracts/eip20/EIP20.sol#L39-L45\n  function transferBalance (address from, address to, uint256 value) private returns (bool) {\n    // don't burn these tokens\n    if (to == address(0) || from == to) revert();\n    // match spec and emit events on 0 value\n    if (value == 0) {\n      Transfer(msg.sender, to, value);\n      return true;\n    }\n\n    uint256 senderBalance = balances[from];\n    uint256 receiverBalance = balances[to];\n    if (senderBalance < value) revert();\n    senderBalance -= value;\n    receiverBalance += value;\n    // overflow check (altough one could use https://github.com/OpenZeppelin/zeppelin-solidity/blob/master/contracts/math/SafeMath.sol)\n    if (receiverBalance < value) revert();\n\n    balances[from] = senderBalance;\n    balances[to] = receiverBalance;\n\n    Transfer(from, to, value);\n    return true;\n  }\n\n \n  // TODO: test with an unintialized Allowance struct\n  function allowance (address owner, address spender) public constant returns (uint256 remaining) {\n    return allowances[owner][spender].amount;\n  }\n\n  function balanceOf (address owner) public constant returns (uint256 balance) {\n    return balances[owner];\n  }\n\n  function supportsInterface (bytes4 interfaceID) external constant returns (bool) {\n    return ((interfaceID == InterfaceSignature_ERC165) ||\n            (interfaceID == InterfaceSignature_ERC20)  ||\n            (interfaceID == InterfaceSignature_ERC20_PlusOptions));\n  }\n}\n\n",
  "sourcePath": "/Users/mishochu/Source/occ/occ-contracts/contracts/OriginalToken.sol",
  "compiler": {
    "name": "solc",
    "version": "0.4.18+commit.9cf6e910.Emscripten.clang"
  },
  "schemaVersion": "1.0.1",
  "updatedAt": "2018-02-03T11:05:16.637Z"
}